:1000000003308A00102B00000830A802031C1428BB
:100010002830840083130310800C0008031914286F
:1000200012280000800B112808002408AB002308C8
:10003000AA002208A9002108A800AF01AE017A3069
:10004000AD008930AC00280803199328B0002C08B3
:1000500003199328B007031834287F30B002031C1B
:1000600093280319932838288130B0070318932860
:100070003008F700F801F901FA012908B400B417B3
:100080002A08B3002B08B2001830B000B101321CAE
:1000900061282F08FA07031C5328F90A031D532867
:1000A000F80A0319B1172E08F907031C5A28F80A91
:1000B0000319B1172D08AA00AA172A08F807031870
:1000C000B117B10DF80CF90CFA0CB40CB30CB20C5E
:1000D0000310B00B46280130F70703189328F81BCC
:1000E0007828B40DFA0DF90DF80DF70303199328CC
:1000F000B41F8928FA0A031D8928F90A031D8928D3
:10010000F80A031D8928F80CF90CFA0CF70A0319F0
:1001100093282908B1002D08B106B11F9128F817BE
:100120009728F8139728F701F801F901FA017A08DE
:10013000AB007908AA007808A9007708A8002B0866
:10014000AF002A08AE002908AD002808AC00B301B2
:10015000B2013430B1008630B0002C080319722986
:10016000B800300803197229B802031CBC287F307C
:10017000B80703187229C2288130B802031C7229FB
:10018000031972293808F700F801F901FA01B701DB
:100190002D08B600B6172E08B5002F08B400193088
:1001A000B8003308B4020318E5280130B50203187B
:1001B000E528B6020318E528B7020318E528B70AB0
:1001C000B60AB50A3308B40717293208B50203186E
:1001D00000290130B60203180029B70203180029CC
:1001E000B70AB60A3208B5073308B407031C172943
:1001F000B50A031D1729B60A031D1729B70A1729BF
:1002000031088038B602031816290130B7020318E6
:100210001629B70A31088038B6073208B507031C1B
:10022000F428B60A031DF428B70AF4287A14B80B88
:100230001A2925290310B40DB50DB60DB70D0310FD
:10024000FA0DF90DF80DB90DD128391C2D2903101F
:10025000F80CF90CFA0CB90C3029F70303197229C0
:10026000B91B59290310B40DB50DB60DB70D3308E0
:10027000B402031845290130B50203184529B60216
:1002800003184529B702031C68293208B502031870
:1002900050290130B60203185029B702031C6829FF
:1002A00031088038B602031859290130B702031CFF
:1002B0006829FA0A031D6829F90A031D6829F80A42
:1002C000031D6829F70A03197229F80CF90CFA0CB6
:1002D0002D08B8003108B806B81F7029F81776291C
:1002E000F8137629F701F801F901FA017A08AB0051
:1002F0007908AA007808A9007708A80083102B08BD
:10030000AF002A08AE002908AD002808AC00B301F0
:10031000B2011630B1008830B00080308318B106C9
:10032000B601B7012D08B5003108B5062C08031930
:100330007D2AB400F70030080319862AB402031995
:10034000222A031CE0293108BA00BA173208B90082
:100350003308B800B7010310BA0CB90CB80CB70CCD
:10036000B40BAA29B51FB72936149A2A36103410AF
:1003700036162F3084008313AF2A3612B51BCA29D4
:10038000341CD529BA0CB90CB80CB70CF70A0319F0
:10039000952AD529BA1BD8290310B70DB80DB90D68
:1003A000BA0DF7030319952ACA293617422A3613BC
:1003B0002D08B500B51FDE29BA178E2ABA138E2A6A
:1003C0003008B400F7002C08B4022D08BA00BA17A0
:1003D0002E08B9002F08B800B7010310BA0CB90CE9
:1003E000B80CB70CB40BEC29B51FF929B6149A2A2E
:1003F000B6103410B616333084008313AF2AB61209
:10040000B51B0C2A341C172ABA0CB90CB80CB70C43
:10041000F70A0319952A172ABA1B1A2A0310B70DCF
:10042000B80DB90DBA0DF7030319952A0C2AB617A2
:10043000422AB6133108B500B51F202ABA178E2AF2
:10044000BA138E2A3108BA00BA173208B900330835
:10045000B800B51F2F2ABA1336159A2A3611B701DC
:1004600034102F3084008313AF2AB51B582A2D086F
:10047000B500341C422ABA0CB90CB80CB70CF70AF8
:100480000319952AB71F532AB80A031D532AB90A1C
:10049000031D532ABA0A031D532ABA0CB90CB80C0F
:1004A000F70A0319952A361BD729B61B192A772A6A
:1004B0008030BA06BA1F602A9A2A3108B5006D2A20
:1004C0002D08B500BA08031D6D2AB908031D6D2A51
:1004D000B808031D6D2AF7018E2ABA1B772A03106C
:1004E000B70DB80DB90DBA0DF70B6D2A952AB51FCA
:1004F0007B2ABA178E2ABA138E2A3008F7003108E1
:10050000BA003208B9003308B8008E2A2C08F70068
:100510002D08BA002E08B9002F08B8003A08F800D4
:100520003908F9003808FA00CD2AF701F801F90175
:10053000FA01CD2AB701B809B909BA09B709B70A4A
:10054000031DA82AB80A031DA82AB90A0319BA0A62
:100550003618B629B618F82936192E2A5D2A000849
:10056000B807031CB92AB90A031DB92ABA0A031924
:10057000341484030008B907031CC12ABA0A0319FA
:10058000341484030008801F803ABA070318341417
:10059000361ABD29B61AFF29352A7A08AB00790820
:1005A000AA007808A9007708A8008E30F70028086C
:1005B000F7022908F9002A08F800F917F7080319C3
:1005C000EC2A0310F908031DE82AF8080319EC2A9D
:1005D000F90CF80CF70BE12AA91FF32AF809F9091D
:1005E000F80A0319F90A7808A6002608383CA7007B
:1005F000A5012508323C031C0D2B8316061083121F
:1006000006142608A800042083160610831206107C
:100610002708A8000420A50AF92A8A110A12232B08
:1006200003081F39830083161F149F141F159F1181
:1006300007309C0083138312A401A3013430A2006D
:0A0640008530A10015281C2B630073
:02400E00723FFF
:00000001FF
;PIC16F877A
;CRC=304B  CREATED="07-jul.-18 10:48"
