:1000000002308A004A2A00000D266110D4326D3871
:100010006539613A75396110E5393A102519AE191B
:100020006610C3060A0027308400831300080319F2
:1000300027280130F800F701F70B1C28F80B1B28C4
:100040004A30F700F70B22282528800B19280800D2
:100050008E30F7002708F8002608F900FA01F808A2
:10006000031D3C287908F800F9010830F702F80868
:10007000031D3C28F70144280310F81B4328F90D01
:10008000F80DF7033C28F8138A110A12962A330850
:100090000319B728BB0037080319B728BB07031893
:1000A00058287F30BB02031CB7280319B7285C28E7
:1000B0008130BB070318B7283B08F700F801F901A6
:1000C000FA013408BF00BF173508BE003608BD006E
:1000D0001830BB00BC013D1C85283A08FA07031CF8
:1000E0007728F90A031D7728F80A0319BC1739087D
:1000F000F907031C7E28F80A0319BC173808B50055
:10010000B5173508F8070318BC17BC0DF80CF90C27
:10011000FA0CBF0CBE0CBD0C0310BB0B6A280130DF
:10012000F7070318B728F81B9C28BF0DFA0DF90D27
:10013000F80DF7030319B728BF1FAD28FA0A031DEE
:10014000AD28F90A031DAD28F80A031DAD28F80CE7
:10015000F90CFA0CF70A0319B7283408BC00380860
:10016000BC06BC1FB528F817BB28F813BB28F7013D
:10017000F801F901FA0108000B08A7008B13831698
:1001800003178C170C140000000083120313A71B25
:100190008B170318F42803170C087F390313A700E3
:1001A00003170D080313A80003170F080313A90072
:1001B00027080C1ED9289900280803178D0003135F
:1001C000290803178F0003130B08AA008B1383164B
:1001D00003178C170C140000000083120313AA1BD2
:1001E0008B17A60BF428142903170C0D0E0D7F395D
:1001F0000313A70003170D080313A80003170F0824
:100200000313A90027080C1E0329990028080317C7
:100210008D000313290803178F008D0A03198F0A15
:1002200003100313A60BBC28080083181A293B30BF
:1002300084008313F701F801F901FA01BB01BC0145
:10024000BD01BE013A08390438043704031958299E
:100250002030BF000310B30DB40DB50DB60DBB0DAE
:10026000BC0DBD0DBE0D3A083E02031D41293908E3
:100270003D02031D412938083C02031D412937086E
:100280003B02031C52293708BB023808031C380FF5
:10029000BC023908031C390FBD023A08031C3A0F8F
:1002A000BE020314F70DF80DF90DFA0DBF0B2A2944
:1002B0003B088000840A3C088000840A3D088000D6
:1002C000840A3E08800008000408AB002A08AD003C
:1002D000031983292908B6002808B5002708B400A7
:1002E0002608B300BA01B9012030B8008230B70047
:1002F00047207A08A9007908A8007808A70077089D
:10030000A600AD0B6A292908B6002808B500270801
:10031000B4002608B3003308B63CB300FA01340831
:10032000B700B4170310B40CB50CB60CFA0CF90CEA
:10033000F80CF70CB30B9229B71FA929F709F80994
:10034000F909FA09F70A0319F80A0319F90A03194E
:10035000FA0A7A08A9007908A8007808A70077089F
:10036000A600A91FC029AB03AB16A609A709A809B7
:10037000A909A60A0319A70A0319A80A0319A90AB1
:100380003B30B2009A30B100CA30B000AF010A3041
:10039000AD002A080319AB0A8314263084008313A6
:1003A0002908B6002808B5002708B4002608B300BD
:1003B0003208BA003108B9003008B8002F08B70079
:1003C00015217808F708031DF8292A0A2D020319B8
:1003D000F8292B080319FA290F392D020319F229DC
:1003E00003182E2AAB1B2E2A2B1BFA292030292A70
:1003F0002030AB05AB1E092AAB122A08031DAB0344
:100400007708AB002D300C1E032A99002B08F7004B
:10041000AB012A082D02031D182A7708AB002E30E5
:100420000C1E102A99002B08F7002030AB05003075
:100430003030AB1E292AAB122A08031DAB03770804
:10044000AB002D300C1E222A99002B08F700AB01BF
:100450003030F70777080C1E2B2A990083103208DA
:10046000B6003108B5003008B4002F08B300BA0157
:10047000B901B8010A30B70015217A08B20079082D
:10048000B1007808B0007708AF00AD0BCC298A1115
:100490000A12C62A03081F3983008316031787111F
:1004A000193003139900A6309800903083129800F9
:1004B000831603170908C039890003131F129F12FE
:1004C0000030031788008312870188018901831394
:1004D000013083160313850003170908C0391F383C
:1004E000890003131F129F12FF3003178800831225
:1004F00003131F179F1783169F1783121F140030B3
:10050000F8001F08C33978049F000130A7001320AA
:100510009F149F18892A83161E088312A0001E08A4
:10052000A1002108A7002008A60028287A08B60004
:100530007908B5007808B4007708B3005A30BA00DB
:10054000F530B9007930B8007D30B70047207A081F
:10055000A5007908A4007808A3007708A200043059
:1005600003178D0000308F00031014300313A60012
:10057000BC20893084002508A9002408A80023088D
:10058000A7002208A6000330AA0064291030031730
:100590008D0000308F00031404300313A600BC202C
:1005A0000430A600FA30A7001320A60BD22A7F2A17
:0205B0006300E6
:04400E00F12CFF3F53
:00000001FF
;PIC16F887
;CRC=DF67  CREATED="12-Oct-20 17:53"
