:060000000A128A110E280D
:10000800FE00030EF6000A08F7007F08F8000A123F
:100018008A116E2D0A128A111128F001F101F201DC
:10002800F301F40183010A128A11372C8312031396
:1000380035088039BA003A08BF003508BA003A07CF
:10004800BB003B08C500B41F2A282B282C284514C0
:1000580045080319302831284028450A031D35284A
:1000680036283E280030B5000030B4000030B30018
:100078000030B200B41748280030B5000030B40092
:100088000030B3000030B20039088039BA003A08AD
:10009800BF063908BA003A07BB003B08C000B81FC2
:1000A8005628572858284014400803195C285D280A
:1000B8006C28400A031D612862286A280030B900AC
:1000C8000030B8000030B7000030B600B817742808
:1000D8000030B9000030B8000030B7000030B6007A
:1000E80040080319782879287E284508031D7D28AB
:1000F8007E2887280030B5000030B4000030B300F7
:100108000030B2007A2B3208BA003A08A00038084A
:100118000A128A1110260A128A118312031321085F
:10012800CB002008CA004A08BA00BB01BC01BD01C7
:100138003D08C4003C08C3003B08C2003A08C1009F
:100148004B08BA00BB01BC01BD013D08C9003C0811
:10015800C8003B08C7003A08C6003308BA003A0886
:10016800A00037080A128A1110260A128A1183126F
:1001780003132108CB002008CA004A08BA00BB01B3
:10018800BC01BD013A08C1073B0803110318013E31
:100198000319CF28C2073C0803110318013E0319AD
:1001A800D628C3073D0803110318013E0319DD28AB
:1001B800C4074B08BA00BB01BC01BD013A08C60719
:1001C8003B0803110318013E0319EB28C7073C0835
:1001D80003110318013E0319F228C8073D0803114B
:1001E8000318013E0319F928C9073408BA003A0868
:1001F800A00036080A128A1110260A128A118312E0
:1002080003132108CB002008CA004A08BA00BB0122
:10021800BC01BD013A08C1073B0803110318013EA0
:1002280003191729C2073C0803110318013E0319D3
:100238001E29C3073D0803110318013E0319252988
:10024800C4074B08BA00BB01BC01BD013A08C60788
:100258003B0803110318013E03193329C7073C085B
:1002680003110318013E03193A29C8073D08031171
:100278000318013E03194129C9070830BA000310C1
:10028800C10DC20DC30DC40DBA0B43293308BA0002
:100298003A08A00036080A128A1110260A128A1192
:1002A800831203132108CB002008CA004A08BA00A9
:1002B8004B08BB00BC01BD013A08C1073B0803114C
:1002C8000318013E03196929C2073C0803110318E2
:1002D800013E03197029C3073D0803110318013EA5
:1002E80003197729C4073208BA003A08A00037086A
:1002F8000A128A1110260A128A118312031321087E
:10030800CB002008CA004A08BA004B08BB00BC0151
:10031800BD013A08C1073B0803110318013E031940
:100328009629C2073C0803110318013E03199D29A9
:10033800C3073D0803110318013E0319A429C40784
:100348000830BA000310C10DC20DC30DC40DBA0B9D
:10035800A6293208BA003A08A00036080A128A11FB
:1003680010260A128A11831203132108CB002008D1
:10037800CA004A08BA004B08BB00BC01BD013A08D4
:10038800C1073B0803110318013E0319CC29C20712
:100398003C0803110318013E0319D329C3073D087C
:1003A80003110318013E0319DA29C4073308BA00F8
:1003B8003A08A00038080A128A1110260A128A116F
:1003C800831203132108CB002008CA004A08BA0088
:1003D8004B08BB00BC01BD013A08C6073B08031126
:1003E8000318013E0319F929C7073C08031103182C
:1003F800013E0319002AC8073D0803110318013EEE
:100408000319072AC9073408BA003A08A0003708B0
:100418000A128A1110260A128A118312031321085C
:10042800CB002008CA004A08BA004B08BB00BC0130
:10043800BD013A08C6073B0803110318013E03191A
:10044800262AC7073C0803110318013E03192D2A61
:10045800C8073D0803110318013E0319342AC907C8
:100468003408BA003A08A00038080A128A1110267F
:100478000A128A11831203132108CB002008CA002C
:100488004A08BA004B08BB00BC01BD010830031084
:10049800BA0DBB0DBC0DBD0DFF3E031D4B2A3A081E
:1004A800C6073B0803110318013E03195C2AC70756
:1004B8003C0803110318013E0319632AC8073D08C5
:1004C80003110318013E03196A2AC9074108BA0033
:1004D8004208BB004308BC004408BD0018300310A4
:1004E800BD0CBC0CBB0CBA0CFF3E031D732A3A08AA
:1004F800C6073B0803110318013E0319842AC707DE
:100508003C0803110318013E03198B2AC8073D084C
:1005180003110318013E0319922AC9070830BA00CB
:100528000310C10DC20DC30DC40DBA0B942A4508A2
:100538004007BA00BB01BB0D3A08823ECA003B081F
:100548000318013EFF3ECB00C62A0130BA00031053
:10055800C60DC70DC80DC90DBA0BAB2AC41FB52AE5
:10056800B62AB72A46140130BA000310C10DC20DCD
:10057800C30DC40DBA0BB92AFF30CA070318CB0A3A
:10058800FF30CB07C81FC92ACA2AA92AC001C41F1D
:10059800CE2ACF2AEB2AFF304105BA00FF304205A8
:1005A800BB00FF304305BC007F304405BD003D085B
:1005B8003C043B043A040319E22AE32AE62AC00170
:1005C800C00AEB2A461CE92AEA2AEB2AE32A400851
:1005D8000319EF2AF02A212B0130C607003003182F
:1005E8000130C707003003180130C807003003186E
:1005F8000130C907491C012B022B212B4608BA00E0
:100608004708BB004808BC004908BD000130BE00CF
:100618003D0DBD0CBC0CBB0CBA0CBE0B0C2B3D0825
:10062800C9003C08C8003B08C7003A08C6000130AA
:10063800CA070318CB0A0030CB074B08803AFF00E3
:1006480080307F02031D2A2BFF304A02031C2D2B0A
:100658002E2B392B7F3083120313C9008030C8003A
:100668000030C7000030C6006E2B831203134B08FE
:10067800803AFF0080307F02031D442B01304A027C
:100688000318472B482B542B003083120313C9003F
:100698000030C8000030C7000030C600BF016E2B14
:1006A800831203134A08BA003A08C500FF30C6058A
:1006B800FF30C7057F30C8050030C905451C652BCC
:1006C800662B672BC8174508BA0003103A0CBB0005
:1006D8003B08C9003F08BA003A08C9044908B500F0
:1006E8004808B4004708B3004608B200080083125F
:1006F8000313AC002C080319822B832B972BA71FFD
:10070800862B872B972B2409AE002509AF002609D5
:10071800B0002709B100AE0A0319AF0A0319B00ADD
:100728000319B10A9F2B2708B1002608B000250835
:10073800AF002408AE002708260425042404031D5E
:10074800A62BA72BB02B0030A7000030A600003046
:10075800A5000030A400362C9630A8002808AD006B
:10076800C22B0130A8002808AD0701300310B10CD6
:10077800B00CAF0CAE0CFF3E031DBA2BFE3031059A
:10078800031DC72BC82BB52BE42B0130A800280864
:10079800AD070130AE07003003180130AF07003055
:1007A80003180130B007003003180130B1070130D9
:1007B8000310B10CB00CAF0CAE0CFF3E031DDC2BCC
:1007C800FF303105031DE92BEA2BC92BF62B01302D
:1007D800AD020130A8000310AE0DAF0DB00DB10D84
:1007E800A80BEF2BB01BF92BFA2B002C02302D0293
:1007F8000318FF2B002CEB2B2D18032C042C0C2C8E
:10080800FF30AE05FF30AF057F30B005FF30B105D2
:100818000310AD0C2D08A800A901AA01AB011830DE
:100828000310A80DA90DAA0DAB0DFF3E031D142C36
:100838002808AE042908AF042A08B0042B08B1041C
:100848002C080319282C292C2E2CA71F2C2C2D2CD6
:100858002E2CB1173108A7003008A6002F08A500D4
:100868002E08A4000800831603138601FF308500B4
:100878000A128A1139260A128A11043083160313C0
:100888008100FB308312031381008B168B170B1723
:1008980004300A128A11D6250A128A118312031308
:1008A8002008D7002108D800D901DA015A08A70082
:1008B8005908A6005808A5005708A40000300A12D5
:1008C8008A117B230A128A11831203132708B9009D
:1008D8002608B8002508B7002408B6003D30B50042
:1008E8001F30B400BE30B3007730B2000A128A114C
:1008F8001A200A128A11831203133508CF0034080C
:10090800CE003308CD003208CC000A128A11F22436
:100918000A128A11831203134D08E0004C08DF0005
:10092800AA30D7005F085702E10060090318013EAA
:10093800E20003300A128A11D6250A128A1183129C
:1009480003132008D7002108D800D901DA015A0872
:10095800A7005908A6005808A5005708A4000030A9
:100968000A128A117B230A128A1183120313270899
:10097800B9002608B8002508B7002408B6003D309D
:10098800B5001F30B400BE30B3007730B2000A1291
:100998008A111A200A128A11831203133508CF000C
:1009A8003408CE003308CD003208CC000A128A1170
:1009B800F2240A128A11831203134D08DC004C0832
:1009C800DB00AA30D7005B085702DD005C0903187A
:1009D800013EDE004C2C0A128A110E2803108312E5
:1009E80003134E0D4F0DD0005008D6005608031DB6
:1009F800FE2CFF2C082D0030CF000030CE00003038
:100A0800CD000030CC006D2D4C08D0004D08D10031
:100A18004E08D2004F08D3001F300310D30CD20C5D
:100A2800D10CD00CFF3E031D112D5008D4005408E2
:100A3800D500CE17FF30CC05FF30CD05FF30CE05F1
:100A48000030CF059630D602D61F2B2D2C2D462DE3
:100A58005608803A973E0318322D332D342DFF2C3B
:100A680001300310CF0CCE0CCD0CCC0CFF3E031D77
:100A7800352D0130D0005008D607031D442D452DD3
:100A8800342D5D2D20305602031C4B2D4C2D582D36
:100A9800FF2C0130D0000310CC0DCD0DCE0DCF0DA5
:100AA800D00B4F2D0130D6025608031D5C2D5D2D4D
:100AB8004D2D55080319612D622D6D2DCC09CD09D9
:100AC800CE09CF09CC0A0319CD0A0319CE0A031996
:100AD800CF0A08000B1D712D722D832DFC30831257
:100AE800031381000B110130F2070318F30A0030D9
:100AF800F3070130F0070318F10A0030F107730813
:100B0800803AF500831203136208803A7502031DC8
:100B18008F2D61087202031C922D932D962D83123E
:100B2800031306147308803AFF0080307F02031D08
:100B38009F2DC8307202031CA22DA32DA82D83124D
:100B480003130610F201F3017108803AF5008312CD
:100B580003135E08803A7502031DB42D5D08700208
:100B6800031CB72DB82DBB2D8312031386147108EF
:100B7800803AFF0080307F02031DC42DC830700208
:100B8800031CC72DC82DCD2D831203138610F00129
:100B9800F1017808FF0077088A00760E8300FE0EC0
:100BA8007E0E0900F90008307902031CDC2DDD2DCA
:100BB800E22D83120313A001A1010F2EC530831269
:100BC8000313A20022089F057908A200023003102F
:100BD800A20DFF3E031DEB2D0310220DA3002308D9
:100BE8009F04103083120313A3009330A200A20BBA
:100BF800FB2DA30BFB2D002E831203131F151F19AA
:100C0800062E072E032E1E08A100831603131E08A6
:100C180083120313A000080083120313A800A40181
:100C2800A5012008A200A3012208A6002308A70006
:100C3800281C1F2E202E262E2608A4070318A50AD6
:100C48002708A50701300310A60DA70DFF3E031DB9
:100C5800272E0310A80C2808031D332E342E1C2E13
:100C68002508A1002408A0000800413083120313BE
:0C0C78009F00C030831603139F0008008B
:08400000FF3FFF3FFF3FFF3FC0
:02400E00723FFF
:00000001FF
