:1000000002308A00712A0000FF00030E8301A10064
:100010000A08A0008A010408A2007708A300780853
:10002000A4007908A5007A08A60003170D08031399
:10003000A70003170F080313A80003170C080313E6
:10004000A90003170E080313AA00831383128C3030
:100050008400801E2D288C1A4E2822088400230834
:10006000F7002408F8002508F9002608FA002708F8
:1000700003178D000313280803178F0003132908A3
:1000800003178C0003132A0803178E00031320089C
:100090008A00210E8300FF0E7F0E09008A110A12CA
:1000A0000C29490EF039F7000F3008057704880055
:1000B000000008140330F700F70B5C285F280810D5
:1000C00008008316081088100811831288100F305A
:1000D00083160805F03888008312081500000814FC
:1000E00000000808F700080E0F39F8007808C9006A
:1000F0000810000008147C287D287E280808F700D6
:10010000080E0F39F8007808C80008100F30831661
:10011000080588008312490EF700F030F7057708CC
:100120004804F8007808C800C81B6728461C8810D7
:10013000461888140000081100000810470EC80077
:100140000F30C8054808C900512047080F39C800BA
:10015000C9005120080042308400831300080319AD
:10016000BF280730F800F701F70BB428F80BB328C5
:10017000C730F700F70BBA280000800BB128080041
:100180004108073A0319CE280B3A0319E328063A27
:100190000319EB28023A0319012906290130C2008C
:1001A000C300430BD428D7284030C400D828C4014A
:1001B00001304202C40744088038C500C601450822
:1001C000C70061200B29C6010130C7006120023041
:1001D000C200AB200B290130C2000230C300430B28
:1001E000F228F5284030C400F628C401013042024C
:1001F000C40744088038C500C6014508C70061200F
:100200000B29C6011030C70061200B290130C60040
:100210004108C700612008008C1E0C291A08B00094
:100220003008C100C0208C128A110A122D280C2916
:10023000E531693169326F103D10A518440028304E
:10024000B2000C30B3000130B4000630B500081025
:10025000881008110F3083160805880008108810D0
:1002600008118312AB018B1BAB178B130F30C2002D
:10027000AB20AB1B8B170130B1003108033C031CD2
:100280005529AB018B1BAB178B130330C9005120D1
:10029000AB1B8B17AB018B1BAB178B130530C2004D
:1002A000AB20AB1B8B17B10A3D29AB018B1BAB17E6
:1002B0008B130230C9005120AB1B8B17AB018B1B7A
:1002C000AB178B130530C200AB20AB1B8B17B101F2
:1002D0003108033C031C7E2932303107840083132C
:1002E0000008B600AB018B1BAB178B13C601360899
:1002F000C7006120AB1B8B17B10A6829C0308B0483
:1003000083168C1683128A110A12862A0B08B200F1
:100310008B13831603178C170C1400000000831234
:100320000313B21B8B170318C32903170C087F395B
:100330000313B20003170D080313B30003170F08CC
:100340000313B400AB018B1BAB178B133208C10036
:10035000C020AB1B8B17330803178D000313340821
:1003600003178F0003130B08B5008B1383160317B5
:100370008C170C140000000083120313B51B8B179D
:10038000B10BC329E82903170C0D0E0D7F39031398
:10039000B20003170D080313B30003170F0803136C
:1003A000B400AB018B1BAB178B133208C100C0200C
:1003B000AB1B8B17330803178D0003133408031787
:1003C0008F008D0A03198F0A03100313B10B8629BE
:1003D0008A110A12902A3808F80137020318F32903
:1003E0003708F700FF29F7010830B900B70DF70DFE
:1003F000380877020318F700F80DB90BF629080042
:100400002030321E3030B3003108F700B11F102AFF
:10041000F709F70A7708B1002D30B300B21732148C
:100420003108B7006430B800EB217708B1003030F4
:100430007807B4003108B7000A30B800EB2130303B
:100440007707B60030307807B5003308F700303052
:10045000340203192F2AB214B21B3215432A33086F
:10046000B4002030B3003030350203193B2A321477
:10047000B21BB214432A031D3214031D432A34084D
:10048000B5002030B40032194A2AB218532A321863
:100490005C2A652AAB018B1BAB178B133308C10099
:1004A000C020AB1B8B17AB018B1BAB178B13340816
:1004B000C100C020AB1B8B17AB018B1BAB178B1381
:1004C0003508C100C020AB1B8B17AB018B1BAB17D2
:1004D0008B133608C100C020AB1B8B178A110A1280
:1004E000952A03081F398300263083169900A2300D
:1004F000980090308312980083161F149F141F15C4
:100500009F1107309C00831383121F291730031794
:100510008D0001308F0003100C300313B1008629C9
:100520003008B1001830B200002A0430B100AB012D
:100530008B1BAB178B13FA30C200AB20AB1B8B1796
:10054000B10B972A862A0430B100AB018B1BAB1785
:100550008B13FA30C200AB20AB1B8B17B10BA52A53
:02056000630036
:02400E00393F38
:00000001FF
;PIC16F877A
;CRC=0792  CREATED="15-Jun-22 01:08"
