:1000000001308A0063290000FF00030E8301A10074
:100010000A08A0008A010408A2007708A300780853
:10002000A4007908A5007A08A60003170D08031399
:10003000A70003170F080313A80003170C080313E6
:10004000A90003170E080313AA00831383128C3030
:100050008400801E2D288C1A4E2822088400230834
:10006000F7002408F8002508F9002608FA002708F8
:1000700003178D000313280803178F0003132908A3
:1000800003178C0003132A0803178E00031320089C
:100090008A00210E8300FF0E7F0E09008A110A12CA
:1000A000CC280808F700080E0F39F80008000F30B8
:1000B00083160805F038880083120815000008141C
:1000C000000051207808C200081000000814000049
:1000D00051207808C10008100F30831608058800E9
:1000E0008312420EF700F030F70577084104F8005C
:1000F0000800420EF039F7000F3008057704880039
:1001000000000814832808100800831608108810BF
:1001100008118312881057207808C100C11B8B2852
:100120003F1C88103F1888140000081100000810B8
:10013000400EC1000F30C1054108C20079204008BF
:100140000F39C100C200792008003C0BA828AB2859
:100150004030BD00AC28BD0101303B02BD073D0869
:100160008038BE00BF013E08C000852008003B303B
:100170008400831300080319CB280130F800F7012D
:10018000F70BC028F80BBF284A30F700F70BC6283A
:10019000C928800BBD2808008C1ECC281A08AC008A
:1001A0002C08BA003A08073A0319E0280B3A031959
:1001B000E528063A0319ED28023A0319F328F8282E
:1001C0000130BB00BC00A520FD28BF010130C000EC
:1001D00085200230BB00B720FD280130BB00023073
:1001E000BC00A520FD28BF011030C0008520FD28DF
:1001F0000130BF003A08C00085208C128A110A1213
:100200002D2849274729C5294510D422582A4F1D92
:1002100000000B08AF008B13831603178C170C1408
:100220000000000083120313AF1B8B1703170C0889
:100230007F3903195F290313AF0003170D08031358
:10024000B00003170F080313B1002F080C1E262956
:100250009900300803178D000313310803178F002E
:1002600003130B08B2008B13831603178C170C149F
:100270000000000083120313B21B8B1703170C0D31
:100280000E0D7F3903195F290313AF0003170D0803
:100290000313B00003170F080313B1002F080C1E3F
:1002A0004F299900300803178D00031331080317F5
:1002B0008F008D0A03198F0A0313092903170313EB
:1002C0008A110A12E42903081F39830019308316A2
:1002D0009900A6309800903083129800AE01AD01CD
:1002E00083161F149F141F159F1107309C00831342
:1002F00028308312B0000C30B1000130B20006305B
:10030000B3000810881008110F3083160805880004
:100310000810881008118312AB018B1BAB178B13CD
:100320000F30BB00B720AB1B8B170130AF002F087D
:10033000033C031CAF29AB018B1BAB178B130330A2
:10034000C2007920AB1B8B17AB018B1BAB178B1338
:100350000530BB00B720AB1B8B17AF0A9729AB0149
:100360008B1BAB178B130230C2007920AB1B8B1792
:10037000AB018B1BAB178B130530BB00B720AB1B3E
:100380008B17AF012F08033C031CD82930302F07EF
:10039000840083130008B400AB018B1BAB178B13D5
:1003A000BF013408C0008520AB1B8B17AF0AC229E0
:1003B000C0308B0483168C160130831203178D0016
:0C03C00001308F0003130929E4296300B9
:02400E00713F00
:00000001FF
;PIC16F877A
;CRC=5276  CREATED="18-Dic.-18 14:29"
