:1000000000308A004A28000023308400831300084F
:10001000031918280130F800F701F70B0D28F80B29
:100020000C284A30F700F70B13281628800B0A28F3
:100030000800831681138312860107308316860019
:10004000831287010030831687001F1383121F134A
:100050009F1783169F1783121F1483161F109F1458
:100060001F159F15F80083121F08C73978049F00D9
:100070000030F800063892007F308316920002307C
:100080008312A200FA30A3000420A20B42288A1196
:100090000A12572803081F39830083161F149F1460
:1000A0001F159F1107309C008313831219281F15F9
:1000B0001F19582883161E088312A0001E08A100CD
:1000C000861D75282108F9002008F800F90CF80CA5
:1000D000F90CF80CF90C78089500F90C790C30390A
:1000E000F7001708CF3977049700061E8A282108E1
:1000F000F9002008F800F90CF80CF90CF80CF90CD0
:1001000078089B00F90C790C3039F7001D08CF39BD
:1001100077049D000A30A300042006189D28861944
:100120009D288601F03097059D0587016430A30066
:10013000042007110C30970086158618AD28061A82
:10014000AD288601F03097059D0587016430A30036
:10015000042087100C309D0006160619B428F030D4
:0C01600097059D05870186015728630064
:02400E00713F00
:00000001FF
;PIC16F877A
;CRC=5310  CREATED="07-ago.-22 18:20"
